:020000040800F2
:100000001004002001010008D70E0008BD090008F7
:10001000D50E00087D010008790F000800000000DF
:10002000000000000000000000000000DB0E0008DF
:100030007F01000800000000D90E0008DD0E000856
:100040001B0100081B0100081B0100081B01000820
:100050001B0100081B0100081B0100081B01000810
:100060001B0100081B0100081B0100081B01000800
:100070001B0100081B0100081B0100081B010008F0
:100080001B0100081B0100081B0100081B010008E0
:100090001B0100081B0100081B0100081B010008D0
:1000A0001B0100081B0100081B0100081B010008C0
:1000B0001B0100081B0100081B0100081B010008B0
:1000C0001B0100081B0100081B0100081B010008A0
:1000D0001B0100081B0100081B0100081B01000890
:1000E0001B0100081B0100081B010008DFF80CD0F1
:1000F00000F032F800480047B90F00081004002053
:100100000648804706480047FEE7FEE7FEE7FEE7B1
:10011000FEE7FEE7FEE7FEE7FEE7FEE7310F000839
:10012000ED000008D2B201E000F8012B491EFBD21D
:1001300070470022F6E710B513460A4604461946F2
:10014000FFF7F0FF204610BD421C10F8011B0029EC
:10015000FBD1801A70470000064C074D06E0E068AE
:1001600040F0010394E8070098471034AC42F6D3FE
:10017000FFF7C0FFC4300008E4300008FEE7704716
:10018000C1F30743CAB2C1F30721890830B1D808C7
:10019000C00240EA411040EAD2007047D008C002D5
:1001A00040EA411040EAD3007047000070B50446B1
:1001B00000F004F90546601C02D0044800780444AD
:1001C00000F0FCF8401BA042FAD370BD00000020F4
:1001D0002DE9F84FDFF8B891002409F1040A0AF17B
:1001E000040B23460F270BF1040EC9E00125A5409F
:1001F0002A40AA427DD1674ED1F804C0ACEB060874
:10020000B44532D014DCBCF1030F3AD009DCBCF1A8
:10021000000F2AD0BCF1010F1CD0BCF1020F31D16C
:100220001DE0BCF1110F17D0BCF1120F2AD119E05B
:10023000B8F5881F19D006DCB8F5803F15D0B8F5A1
:10024000801F1FD111E0B8F5001F0ED0B8F5041FB4
:1002500018D10AE0CB6815E0CB681B1D12E0CB6813
:1002600008330FE0CB680C330CE08B682BB1012B0B
:100270004FF0080303D0456104E0042302E0056168
:1002800000E00023FF2A01D8064601E000F1040641
:100290004FEA840501D9A5F12005D6F8008007FAB8
:1002A00005FC28EA0C0803FA05F548EA0508C6F833
:1002B00000804D68ED0062D5374DAE6946F001060D
:1002C000AE61AD6924F0030605F001050095334DDC
:1002D00006EB050CDCF80850A607360F07FA06F8FF
:1002E00025EA0805DFF8B880404503D14FF0000843
:1002F00017E044E0DFF8AC80404502D14FF0010840
:100300000FE0DFF8A480404502D14FF0020808E07A
:10031000DFF89880404502D14FF0030801E04FF02C
:10032000040808FA06F848EA0508CCF808804D6881
:10033000D9F80060ED034D4601D5164300E0964321
:100340002E604D68DAF80060AD03554601D51643BE
:1003500000E096432E604D68DBF80060ED025D46DC
:1003600001D5164300E096432E604D68DEF800602C
:10037000AD02754601D5164300E096432E60641C1D
:100380000D682A46E5407FF431AFBDE8F88F0000E4
:100390000004014000001110001002400000014064
:1003A00000080140000C0140001001400014014011
:1003B0000AB1016170470904FBE700000148806849
:1003C0007047000000000020024881680278114454
:1003D0008160704700000020074810B5016841F0B7
:1003E00010010160032000F067F8002000F006F81B
:1003F00000F024F8002010BD0020024070B50D4D23
:1004000004464FF47A712878B1FBF0F00A49096884
:10041000B1FBF0F000F0BEFA48B9102C07D2002270
:100420002146501E00F028F800206C6070BD0120AD
:1004300070BD0000000000200C0000200C4808B532
:10044000816941F001018161816901F0010100913F
:10045000C16941F08051C161C06900F080500090D5
:100460000448416821F0E06141F00071416008BD3D
:100470000010024000000140F0B40E4B1B680C4617
:10048000C3F30223C3F10705042D00D90425191D68
:10049000072901D2002300E0DB1E012606FA05F140
:1004A000491E214099409E40761E16403143F0BCC3
:1004B00000F063BD0CED00E0064900F0070208689B
:1004C0004FF6FF03184040EA0220034A1043086039
:1004D000704700000CED00E00000FA052DE9F04740
:1004E0000F46050061D0434E306800F00700B84267
:1004F00009D2306820F0070038433060306800F0DF
:100500000700B84251D128683B4C810712D54007FB
:1005100003D5606840F4E06060602878000703D588
:10052000606840F4605060606068A96820F0F00086
:10053000084360602878C00728D06868012810D078
:100540002168022810D0890700292EDA616821F07D
:10055000030101436160FFF731FF804641F28839B2
:100560000DE021688903EFE78901EDE7FFF726FF3A
:10057000A0EB0801494502D90320BDE8F087606877
:10058000696800F00C00B0EB810FEFD1306800F02B
:100590000700B8420BD9306820F0070038433060BC
:1005A000306800F00700B84201D00120E5E7287864
:1005B000400705D56068E96820F4E06008436060A2
:1005C0002878000706D56068296920F4605040EA61
:1005D000C100606000F018F86168084AC1F30311B7
:1005E000515CC8400649086006480068FFF706FFEE
:1005F0000020C2E70020024000100240B430000892
:100600000C0000200400002012A185B00FC98DE865
:100610000F0014A0144A006804905168134801F0B8
:100620000C03042B10D0082B0ED1C1F38343C90354
:100630001DF803000AD5516804AAC1F34041515C7A
:100640000A4A5043B0FBF1F005B0704708494843EF
:10065000FAE7000002030405060708090A0B0C0D5F
:100660000E0F1010010200000010024000127A006C
:1006700000093D002DE9F84F040070D02078C04DEE
:10068000C00749D06868C0F38100012807D06868B6
:10069000C0F38100022809D16868C00306D5286824
:1006A000800339D560680028E7D035E06068B0F590
:1006B000803F0BD010B1B0F5A02F11D0286820F4E6
:1006C00080302860286820F4802002E0286840F408
:1006D00080302860606890B1FFF770FE06460AE03F
:1006E000286840F480202860F0E700BFFFF766FE2E
:1006F000801B642873D828688003F7D50CE0FFF7C7
:100700005DFE064605E000BFFFF758FE801B64282B
:10071000F0D828688003F7D420789A4E80074FF0ED
:1007200001094FF0000839D5686810F00C0F07D0A8
:100730006868C0F38100022809D16868C00306D444
:100740002868800714D52069012808D110E02069A5
:10075000B0B1C6F80090FFF731FE074605E00AE1A8
:10076000FFF72CFEC01B0228C4D828688007F7D5E5
:100770002868616920F0F80040EAC10028600DE0B7
:10078000C6F80080FFF71AFE074604E0FFF716FEE2
:10079000C01B022823D828688007F7D420780007D8
:1007A0002CD57948A169D9B1C0F80090FFF706FEB1
:1007B000074604E0FFF702FEC01B02280FD8686A54
:1007C0008007F7D571484FF4FA510068B0FBF1F09B
:1007D000009000BF0098411E0091FAD20EE080E028
:1007E000C0F80080FFF7EAFD074604E0FFF7E6FDEA
:1007F000C01B022875D8686A8007F7D420784007A4
:1008000060D5E8690027C00008D4E86940F080504E
:10081000E861E869012700F0805000905C480168B9
:10082000C90513D40168834641F480710160FFF764
:10083000C5FD824606E000BFFFF7C0FDA0EB0A0041
:1008400064284ED8DBF80000C005F5D5E068012823
:100850000AD008B1052813D0286A20F001002862C8
:10086000286A20F0040002E0286A40F001002862B3
:10087000E06841F2883B98B1FFF7A0FD82460BE0AB
:10088000286A40F004002862EEE700BFFFF796FDFB
:10089000A0EB0A0159455AD8286A8007F6D50CE022
:1008A000FFF78CFD824605E0FFF788FDA0EB0A010B
:1008B00059454CD8286A8007F6D41FB1E86920F062
:1008C0008050E861E06988B36968C1F38101022959
:1008D00044D00228C6F8608004D0FFF76FFD0446BC
:1008E00038E034E0FFF76AFD074604E0FFF766FDF5
:1008F000C01B02282BD828688001F7D4206AB0F5E5
:10090000803F05D16868A16820F400300843686022
:10091000D4E908010843696821F474110843686048
:10092000C6F86090FFF74AFD044606E025E000BFE8
:10093000FFF744FD001B022809D828688001F7D57D
:100940001BE000BFFFF73AFD001B022802D903207D
:10095000BDE8F88F28688001F4D40EE00128F7D0B4
:100960006868226A00F48031914204D1616A00F41F
:100970007010884201D00120EAE70020E8E700007B
:100980000010024000004242800442420C0000205D
:100990000070004010B5401EB0F1807F01D30120EF
:1009A00010BD4FF0E02460610F21601700F0E5FA00
:1009B0000020A06107202061002010BDFEE700009C
:1009C00070B504464D4DC00B4FF4004101D00122DB
:1009D00000E000222846FFF7EBFC494E600401D5F9
:1009E000012200E0002204213046FFF7E1FCA004D0
:1009F00001D5012200E0002201213046FFF7D8FC9A
:100A0000E0044FF4805101D5012200E00022284685
:100A1000FFF7CEFC20054FF4006101D5012200E074
:100A200000222846FFF7C4FC60054FF4806101D521
:100A3000012200E000222846FFF7BAFCA0054FF48F
:100A4000007101D5012200E000222846FFF7B0FC2A
:100A5000E0054FF4807101D5012200E00022284614
:100A6000FFF7A6FC200601D5012200E0002280212C
:100A70002846FFF79DFC600601D5012200E0002218
:100A800040212846FFF794FCA00601D5012200E092
:100A9000002220212846FFF78BFC1A4EE00601D5E4
:100AA000012200E0002240213046FFF781FC2007B0
:100AB00001D5012200E0002208213046FFF778FC32
:100AC000600701D5012200E0002204213046FFF733
:100AD0006FFCA00701D5012200E000220221284678
:100AE000FFF766FCE00701D0012200E00022284663
:100AF000BDE870400121FFF75BBC00000008014029
:100B0000000C0140001001402DE9FF4F4FF000099B
:100B100081B01446DDF838A0B2F800804F46484650
:100B20004E46D3F800B04CE000252BE037B91BF857
:100B3000089008F101011FFA81F8802719EA070FD0
:100B400002D0401C80B21AE0C8B10F9900910AFB94
:100B500000F18AB294F90610029B01EB060C0CFB23
:100B60000A3194F9053089B22B44A3EB000C019BA8
:100B70000CFB0A3080B2534600F0AAF800207F0830
:100B80006D1CEDB2A178A942D0D8C0B10F990091E7
:100B90000AFB00F18AB294F90610029B01EB060CE5
:100BA0000CFB0A3194F9053089B22B441D1A019BC4
:100BB00005FB0A3080B2534600F08AF80020761C0C
:100BC000F6B2E178B142AFD805B0BDE8F08F0000D1
:100BD0002DE9F04788B005B290460EB2DDE9109AD3
:100BE00093E807000DF1100C2F468CE80700002455
:100BF00027E000BF18F804000A282AD09DF8181032
:100C000081421CD89DF81910814218D30D2816D0A6
:100C10009DF818200599801A01EBC00004AB01680B
:100C200002914068CDE9009A039002AA3146284615
:100C3000FFF76AFF9DF80C1001FB095005B2641C18
:100C4000A4B24046FFF780FAA042D3D808B0BDE86E
:100C5000F0879DF81A103D4601FB096006B2EEE7E9
:100C600010B5012211460D48FFF7A2FB112000F03C
:100C70004DF87820FFF79AFA3A2000F047F855200F
:100C800000F068F80520FFF791FA292000F03EF8FF
:100C9000BDE81040012000F003B800000010014042
:100CA00010B50446362000F031F854B1012C0AD0BA
:100CB000022C0AD0032C0AD16A20BDE8104000F0B3
:100CC00049B80A20F9E7AA20F7E7CA20F5E710BDDE
:100CD0002DE9F0410F46811802FB03F5FA18491E71
:100CE00089B20B46521E0146002492B23846069E37
:100CF00000F054F806E031460120FFF741FA00F019
:100D000029F8641CAC42F6D3BDE8F08170B5104CF4
:100D10000546002220212046FFF74AFB002202213F
:100D20002046FFF745FB2846FFF74AFE0022102128
:100D30002046FFF73DFB012210212046FFF738FB3C
:100D40002046BDE8704001220221FFF731BB0000C0
:100D50000010014070B5104C0546012220212046AC
:100D6000FFF726FB002202212046FFF721FB284641
:100D7000FFF726FE002210212046FFF719FB012273
:100D800010212046FFF714FB2046BDE870400122E9
:100D90000221FFF70DBB000000100140F8B50F461F
:100DA00000210091010A8DF800108DF80100100A51
:100DB0008DF802001E468DF803202A20FFF7A6FFBB
:100DC00000246D46285DFFF7C5FF641CE4B2042CC7
:100DD000F8D3380A8DF800008DF80170300A8DF8CC
:100DE00002008DF803602B20FFF790FF0024285DA0
:100DF000FFF7B0FF641CE4B2042CF8D32C20FFF7FB
:100E000085FFF8BD2DE9F04786B000242D480094F9
:100E1000019402940394816941F020018161816908
:100E200001F020010491816941F010018161816923
:100E300001F010010491816941F00401816181692F
:100E400001F004010491816941F008018161806928
:100E5000DFF8748000F00800049000227F214046F3
:100E6000FFF7A6FADFF8649049F6E37700223946E7
:100E70004846FFF79DFADFF858A0002205215046AA
:100E8000FFF796FA7F2001250326CDE90005CDE97D
:100E9000024669464046FFF79BF900970396CDE965
:100EA000015469464846FFF793F90520CDE900054E
:100EB000CDE9024669465046FFF78AF906B0BDE81B
:100EC000F0870000001002400010014000080140BF
:100ED000000C0140FEE7704770477047FFF774BA97
:100EE00030B58FB028216846FFF723F914210AA8EE
:100EF000FFF71FF901210804CDE900100024029436
:100F000002250491CDE907504FF4E010099068469E
:100F1000FFF7B0FB0F20CDE90A056802CDE90C40D0
:100F200002210AA80E94FFF7D9FA0FB030BD0000D5
:100F30000D48016841F00101016041680B4A114010
:100F4000416001680A4A11400160016821F4802172
:100F50000160416821F4FE0141604FF41F0181608E
:100F60000449C00308607047001002400000FFF809
:100F7000FFFFF6FE08ED00E0FEE70907090E002876
:100F800004DB00F1E02080F80014704700F00F004F
:100F900000F1E02080F8141D704702E008C8121F1D
:100FA00008C1002AFAD170477047002001E001C152
:100FB000121F002AFBD170471CB5FFF70DFAFFF78F
:100FC0008FFFFFF71FFFC820FFF7F0F8FFF748FE7D
:100FD000C820FFF7EBF84FF47F40002100904FF45A
:100FE000F0734FF4A0720846FFF772FEC820FFF7B7
:100FF000DDF84FF47F010120CDE90001034B04A28D
:10100000AA212D20FFF7E4FDFEE70000A83000082C
:1010100074657374000000007FFFFFFFFFFFFFFF98
:10102000FFFFFFFFFFFFFF7DE79E79E00000003F2D
:10103000FFFFFFFFF01F03C7C1F1F07CF83F3E0F39
:101040009F83E7E1F9F87EFC3FBF0FCFC3FBF0FEC3
:10105000FC3FBF0FEFC3FBF0FE007C3C007C7C003C
:10106000787C00787C00787800F87800F8F800F850
:10107000F800F0F03FFFFF3FFFFF3FFFFF3FFFFFA4
:101080003FFFFF3FFFFF03E1E003E1E003E3E00395
:10109000C3E003C3E007C3C007C7C0FFFFFCFFFFF7
:1010A000FCFFFFFCFFFFFCFFFFFCFFFFFC0F0F80BE
:1010B0000F0F801F0F001F0F001F1F001E1F001E9D
:1010C0001F003E1E003E1E0000C0001C00038000EA
:1010D00070000E0001C0007C007FF81FFF87FFF149
:1010E000FFFE3FFFC7EEF9F9C33F3807E700FCE01A
:1010F0001F9C03FB803FF007FF807FFC0FFFC0FFBA
:10110000FC0FFF807FF803FF0077E00E7E01CFC069
:1011100039FE073FE0E7DF9DFBFFFF7FFFCFFFF8D2
:10112000FFFE0FFF803FC000E0001C000380007046
:10113000000E0001C000380006000FC0001FE000D4
:101140003FF0007FF0007FF800787800F07800F042
:101150007800F078007878007CF8007FF0043FF0A9
:101160001E3FE07E1FC1F80787E0000F80003E00B1
:1011700000FC0003F0000FC1F03F03F83C07FC3017
:101180000FFE000FFE000F1E001E0F001E0F001EA0
:101190000F001E0F000F1E000FFE000FFE0007FCC9
:1011A0000003F80001F0007C0003FF000FFE003F89
:1011B000FC00FFF801FFF007F9E00FC0401F8000BE
:1011C0003F00007E0000FC0000FC0001F80001F878
:1011D0000003F0000FF0003FE0007FE001FFC007D8
:1011E000FFC3EFDF87DF3F8FFE3F1FF83F3FF07EFB
:1011F0007FE07EF7C0FFEF80FFDF81FFBF01FE7F52
:1012000003FCFE07F0FF3FE1FFFFE1FFFFC3FFFF2D
:10121000C3FFFF81FF1F80F8000F8787C3E3F1F84A
:10122000F8FC7E7F3F9FCFE7F3F9FC07C1F0F83E63
:101230001F87C1F0FC3E0F87E1F87C1F0FC3F0FC55
:101240003F0FC3E0F83E0F83E0F83E0FC3F0FC3FD2
:101250000FC3F07C1F07E1F83E0F83F07C1F03E013
:10126000F83E07C1F0F80F81F01F03E07C07C0F8DB
:101270001F83F03E07C0FC1F83F03E07C0FC1F83A6
:10128000F07E0FC1F83F07E0FC1F83F07E0F81F076
:101290007E0FC1F83E07C1F83F07C0F83E07C0F80F
:1012A0003E07C1F00000780001E0000780001E004A
:1012B00000780181E0670783BE1E1FFC78FDFDEF0B
:1012C000E3FFFF03FFF807FF8007FC000FE0007F4C
:1012D000C007FF803FFF83FFFF1FDEFEFC78FFE1BA
:1012E000E1F70783981E0600780001E00007800000
:1012F0001E00007800007C0001F00007C0001F0005
:10130000007C0001F00007C0001F00007C0001F01D
:101310000007C03FFFFFFFFFFFFFFFFFFFFFFFFFD3
:10132000FFFFFFFC01F00007C0001F00007C000170
:10133000F00007C0001F00007C0001F00007C000A3
:101340001F003F9FCFE7F3F9FCFE7F3F1F9F8FC732
:10135000C3E1F1F07000FFFFFFFFFFFFFFFFFFFFA2
:10136000FFFFFFFFFFFFFFFFE0FFFFFFFFFFFFFFAC
:10137000FE0001E0007C000F0003E00078000F0099
:1013800003E00078001F0003C000F8001E0003C047
:1013900000F8001E0007C000F0003E0007C000F08B
:1013A000003E00078001F0003C000F8001E0003C9F
:1013B000000F8001E0007C000F0003E0007C000FC4
:1013C0000003E00078000001E000FF003FF80FFF9D
:1013D00003FFF07FFF1FFFE3F8FC7E1FCFC1FBF090
:1013E0003F7E0FEFC1FFF87FFF0FFFE3FFFC7FFFA2
:1013F0008EFFF39FFE73FFDC7FF38FFEE1FFFC3F68
:10140000FF87FFE0FFFC1FFF07FFE0FDF81FBF03A2
:10141000F3F0FE7E1F8FFFF0FFFE1FFF81FFF01F26
:10142000FC01FF001F8007F007FE03FFC07FF80FDD
:10143000FF01FFE03FFC07DF80C3F0007E000FC02C
:1014400001F8003F0007E000FC001F8003F0007E71
:10145000000FC001F8003F0007E000FC001F800300
:10146000F0007E000FC001F8003F0007E000FC071D
:10147000FFFEFFFFFFFFFFFFFFFFFFFFFFFFFFFF7D
:101480008001E003FF81FFFC3FFFC7FFF8FFFF9FE4
:10149000CFF3807F600FE000FC001F8003F0007E30
:1014A000000FC001F8007E000FC003F000FE001F17
:1014B0008007F001FC003F000FE003F8007E001FF2
:1014C0008007F001FC003F000FC003F0007FFFFF2A
:1014D000FFFFFFFFFFFFFFFFFFFFFFFFFFF803E03E
:1014E00007FF01FFF87FFF8FFFF9FFFF3FFFE78155
:1014F000FE400FC001F8003F0007E000FC001F8025
:1015000007E03FFC07FF00FFC01FE003FF007FF084
:101510000FFF000FE0007E000FC000FC001F8003E3
:10152000F0007E000FC001FC007FE01FDFFFFBFF2B
:10153000FF7FFFCFFFF1FFFC1FFF007F80001F80B8
:1015400000FE000FF0007F8007FC003FE003FF007B
:101550001FF801FFC00FFE00FBF0079F807CFC031B
:10156000E7E03E3F01F1F81F0FC0F87E0F83F07CEB
:101570001F87C0FC3E07E3E03E1FFFFEFFFFFFFFAB
:10158000FFFFFFFFFFFFFFFFFFFFFFF8003E00012F
:10159000F0000FC0007E0003F0001F8000FC000779
:1015A000C07FFF8FFFF1FFFE3FFFC7FFF8FFFF1F68
:1015B000FFE3E0007C000F8001F0003E0007C00068
:1015C000FFE01FFF03FFF07FFF0FFFF1FFFE3E7FF5
:1015D000E601FC001F8003F8003F0007E000FC006C
:1015E0001F8003F0007E001FC003F701FEFFFFDF36
:1015F000FFF3FFFC7FFF8FFFE0FFF003F8000038F0
:10160000003FE01FFE07FFC1FFF83FFF0FFFE1FCB7
:101610000C7F008FC001F8007E000FC001F8003F72
:101620003F07CFF0FBFF9FFFF3FFFF7FFFEFF9FFC7
:10163000FC1FFF81FFF03FFC07FF807FF00FFE01E2
:10164000FFC03FF80FDF81FBF03F7E0FEFF3F8FFA5
:10165000FF1FFFC1FFF81FFE01FF800FC0FFFFFF4C
:10166000FFFFFFFFFFFFFFFFFFFFFFFFFC003F004B
:101670001F8007E001F800FE003F000FC003F001EB
:10168000F8007E001F800FC003F000FC007F001FE9
:101690008007E003F800FC003F000FC007E001F8FE
:1016A000007E003F000FC003F001FC007E001F80A1
:1016B00007E00001E000FF807FF81FFF83FFF8FFD5
:1016C000FF1FFFE3F0FEFC0FDF80FBF01F7E03EF48
:1016D000C07CF81F9F03E3F0FC3FFF83FFE03FF077
:1016E00007FF03FFF07FFF1FCFE7E07EFC07DF006F
:1016F000FFE01FFC03FF807FF00FFE01FFE03FFCD7
:101700000FDFE7F9FFFF3FFFC3FFF83FFE03FF8056
:101710001F8003FC00FFE01FFF01FFF83FFFC3FF36
:10172000FC7F0FC7E07E7C07E7C07E7C07EFC03FF1
:10173000FC07FFC03FFC07F7C07F7E07F7E07F7F15
:101740000FF7FFFF3FFFF3FFFF1FFFF0FFBF07F3A0
:10175000F01C3F0003F0003E0007E0007E000FE3B6
:1017600000FC3C3FC3FFF83FFF83FFF03FFE03FF59
:10177000C00FF0007DFFFFFFFFFFFFFFFC00000038
:1017800000000003FFFFFFFFFFFFFFFBE03E7F7F46
:101790007F7F7F7F7F7F7F00000000000000007F51
:1017A0007F7F7F7F7F7F7F7E7E7CFCFCF8F8F0F080
:1017B0000000180003C0007E000FF001FF803FFC16
:1017C00007FFC0FFF81FFF03FFC03FF801FF000F36
:1017D000E0007E0003FC001FFC007FF800FFF0012A
:1017E000FFE007FFC00FFF801FFC003FE0007F000D
:1017F00000F80001C00002FFFFFFFFFFFFFFFFFF37
:10180000FFFFFFFFFFFFFC000000000000000000E2
:101810000000000000000FFFFFFFFFFFFFFFFFFFC2
:10182000FFFFFFFFFFFFC0C0000780003F0001FE79
:10183000000FFC007FF801FFF003FFE007FFC00F7F
:10184000FF800FFE001FF0003F8000FC003FE0071C
:10185000FF00FFF01FFE03FFC07FF80FFF007FE0D7
:1018600003FC001F8000F80007000020000003C0F8
:101870001FF87FFCFFFEFFFEFFFFFFFFF03FC03FB2
:10188000801F001F003F003F007E007E00FC01F82B
:1018900003F803F007E007E00FC00FC00F800F80D0
:1018A0000F800F800F800F800000000000000F806D
:1018B0000F800F800F800F800F800F80003F00018E
:1018C000FF800FFF803FFF807FFF81FC3F07E01F0D
:1018D0000F803E3E003C7C0079F000F3E07CF78313
:1018E000FFEF0FFFFE1FFFF87FFFF0F87FE1E07FC3
:1018F000C7C0FF8F80FF1F01FE3E03FC7C07F8F886
:101900000FF1F03FE1E07FC3E0FF87E7FF87FFFFD4
:101910000FFFDE0FFFBC0FEE7C0700780000F80021
:1019200000F80001F80001F80303FE3E03FFFE0388
:10193000FFFC03FFF801FFC0007E0000FE0001FE77
:101940000007FC000FF8001FF0003FE0007FE001FF
:10195000FFC003FF8007DF000FBE001F7E007EFC7C
:1019600000FCF801F1F003E3E007C7E01F8FC03F80
:101970001F807E1F00F83E01F07E07FFFC0FFFF87E
:101980001FFFF03FFFE07FFFE1FFFFC3FFFF87E0A6
:101990003F0FC03F3F007E7E00FCFC01F9F803F3DF
:1019A000F003FFC007FF800FC0FFF807FFF83FFFFD
:1019B000E1FFFF8FFFFC7FFFF3F07F9F80FCFC07C0
:1019C000F7E01FBF00FDF807EFC03E7E03F3F03FD6
:1019D0009FFFF8FFFF87FFF83FFFC1FFFF8FFFFE6C
:1019E0007E07F3F00FDF807EFC03F7E00FFF007F40
:1019F000F803FFC03FFE01FFF00FFF81FEFFFFF77E
:101A0000FFFFBFFFF9FFFF8FFFF87FFF00003C00E3
:101A10007FE07FFC3FFF1FFFC7FFF3FFFCFF9F7FBF
:101A200081DFC017E003F800FE003F000FC003F0A5
:101A300000FC003F000FC003F000FC003F000FC09F
:101A400003F000FC003F000FC003F800FE001F8001
:101A500007F005FE033FC3CFFFF1FFFC7FFF0FFF41
:101A6000C1FFF03FF801F87FE007FFE03FFFC1FF53
:101A7000FF0FFFFC7FFFE3FFFF9F83FCFC0FF7E0FE
:101A80003FBF00FDF807EFC03FFE01FFF007FF80FA
:101A90003FFC01FFE00FFF007FF803FFC01FFE00C7
:101AA000FFF007FF803FFC03FFE01FFF00FFF80788
:101AB000EFC07F7E03FBF07F9FFFFCFFFFC7FFFEB1
:101AC0003FFFE1FFFE0FFFC07FF800FFFFFFFFFFBA
:101AD000FFFFFFFFFFFFFFFFFFFFFFF000FC003FE6
:101AE000000FC003F000FC003F000FC003FFFEFF2B
:101AF000FFBFFFEFFFFBFFFEFFFFBFFFEFC003F0E5
:101B000000FC003F000FC003F000FC003F000FC0CE
:101B100003FFFFFFFFFFFFFFFFFFFFFFFFFFFFFFD1
:101B2000F07FFFFFFFFFFFFFFFFFFFFFFFFFFFFF54
:101B3000FFFFE000FC001F8003F0007E000FC001EB
:101B4000F8003F0007FFFEFFFFDFFFFBFFFF7FFF07
:101B5000EFFFFDFFFF3F0007E000FC001F8003F0E8
:101B6000007E000FC001F8003F0007E000FC001FEE
:101B70008003F0007E000FC001F80000003E000F5F
:101B8000FE00FFF80FFFE0FFFF0FFFF87FFFC7FC2D
:101B90003E3F8073FC019FC004FC0007E0007F0013
:101BA00003F8001F8000FC0007E0003F03FDF83F42
:101BB000FFC1FFFE0FFFF07FFF83FFFC1FFFF00F51
:101BC000FF807EFC03F7E01FBF80FDFC07E7F03FCE
:101BD0003FE1F8FFFFC7FFFE1FFFF07FFF01FFF0AF
:101BE00007FF000FC07C03FF80FFF01FFE03FFC054
:101BF0007FF80FFF01FFE03FFC07FF80FFF01FFEB3
:101C000003FFC07FF80FFFFFFFFFFFFFFFFFFFFF96
:101C1000FFFFFFFFFFFFFFFC0FFF01FFE03FFC079F
:101C2000FF80FFF01FFE03FFC07FF80FFF01FFE002
:101C30003FFC07FF80FFF01FFE03FFC07FF80FC0CF
:101C4000FFFFFFFFFFFFFFFFFFFFFFFFFFFFFFFCA7
:101C50000FC003F000FC003F000FC003F000FC00C9
:101C60003F000FC003F000FC003F000FC003F00076
:101C7000FC003F000FC003F000FC003F000FC0035A
:101C8000F000FC003F01FFFEFFFFFFFFFFFFFFFF33
:101C9000FFFFFFFFFFF007FF83FFF0FFFC3FFF0F99
:101CA000FFC3FFF07FFC003F000FC003F000FC000B
:101CB0003F000FC003F000FC003F000FC003F00026
:101CC000FC003F000FC003F000FC003F000FC0030A
:101CD000F000FC003F801FF007FE01FBE1FEFFFF6C
:101CE000BFFFEFFFF3FFFCFFFE0FFF007F00FC01D3
:101CF000FBF00FEFC07F3F01FCFC0FE3F03F0FC193
:101D0000FC3F0FE0FC3F03F1FC0FC7E03F3F80FDCD
:101D1000FC03F7E00FFF803FFC00FFF803FFE00F3C
:101D2000FFC03FFF00FFFE03FFF80FF7E03F9FC03B
:101D3000FC3F03F0FE0FC1F83F07F0FC1FC3F03F6C
:101D40000FC0FE3F01F8FC07F3F01FCFC03F3F007C
:101D5000FEFC01FBF007F0FC003F000FC003F000A9
:101D6000FC003F000FC003F000FC003F000FC00369
:101D7000F000FC003F000FC003F000FC003F000F2C
:101D8000C003F000FC003F000FC003F000FC003F68
:101D9000000FC003F000FC003F000FC003FFFFFF77
:101DA000FFFFFFFFFFFFFFFFFFFFFFFFF07E03FFCF
:101DB000F81FFFC0FFFE0FFFF07FFFC3FFFE1FFFF6
:101DC000F0FFFF8FFFFC7FFFF3FFFF9DFFBCEFFCE9
:101DD000EF7FE77BFFBFDFFDFEFFEFE7FF7F3FF910
:101DE000F9FFCFCFFE7E7FF3E3FF9F1FFC78FFE07C
:101DF00007FF003FF801FFC00FFE007FF003FF80E8
:101E00001FFC00FFE007FF003FF801FFC00FFE00CE
:101E10007CFC03EFE03FFE03FFE03FFF03FFF03FEA
:101E2000FF03FFF83FFF83FFF83FFF83FFFC3FFF07
:101E3000C3FFBC3FFBE3FF9E3FF9E3FF9F3FF9F386
:101E4000FF8F3FF8F3FF8FBFF87BFF87BFF87BFF63
:101E500083FFF83FFF83FFF83FFF81FFF81FFF81FB
:101E6000FFF81FFF80FFF80FFF80FFF807FF807F5C
:101E700000F0003FC00FFF01FFF01FFF83FFFC3F9A
:101E8000FFC7F9FE7F0FE7E07E7E07FFC07FFC0300
:101E9000FFC03FFC03FFC03FFC03FFC03FFC03FF4C
:101EA000C03FFC03FFC03FFC03FFC03FFC03FFC07B
:101EB0003FFC03FFC03FFC03FFE07F7E07E7F0FE2F
:101EC0007F9FE3FFFC3FFFC1FFF81FFF80FFF0078C
:101ED000FE001F80FFF01FFFC3FFFC7FFFCFFFFD51
:101EE000FFFFBFFFFFE07FFC0FFF80FFF01FFE033F
:101EF000FFC07FF80FFF01FFE07FFC0FFFFFFFFF38
:101F0000FF7FFFEFFFF9FFFE3FFF87FF80FC001F11
:101F10008003F0007E000FC001F8003F0007E000E2
:101F2000FC001F8003F0007E000FC001F8000001DC
:101F3000F8007FE00FFF01FFF81FFF83FFFC3FFF6A
:101F4000C7F0FE7E0FE7E07EFE07FFC03FFC03FF09
:101F5000C03FFC03FFC03FFC03FFC03FFC03FFC0CA
:101F60003FFC03FFC03FFC03FFC03FFC03FFC03F3B
:101F7000FC03FFC03FFE07F7E07E7E07E7F0FE3F71
:101F8000FFC3FFFC1FFF81FFF80FFF007FF001FF81
:101F90008001FC000FE0007E0007C0003800030055
:101FA0007FF803FFF80FFFF83FFFF0FFFFC3FFFFCD
:101FB0008FFFFE3F03F8FC07E3F01F8FC07E3F0159
:101FC000F8FC07E3F01F8FC07E3F03F8FE3FC3FF1E
:101FD000FF0FFFF83FFFC0FFFC03FFF80FFFF03FCC
:101FE0001FC0FC3F83F07E0FC1F83F03F0FC0FC31E
:101FF000F03F8FC07E3F01F8FC07F3F00FCFC03FEA
:10200000BF00FEFC01FBF007F000F0007FE00FFFD7
:1020100081FFFC3FFFC7FFFC7FFFC7E03CFE01CF15
:10202000C004FC000FC000FC000FE000FF0007FC34
:10203000007FF003FFC03FFE01FFF00FFF803FFC79
:1020400001FFC007FE001FE000FE0007F0007F0058
:1020500003F0003FC007FE007EF80FEFFFFEFFFF1A
:10206000EFFFFCFFFF87FFF01FFE007F80FFFFFFF9
:10207000FFFFFFFFFFFFFFFFFFFFFFFFFFFFF01F5F
:102080008001F8001F8001F8001F8001F8001F8008
:1020900001F8001F8001F8001F8001F8001F800177
:1020A000F8001F8001F8001F8001F8001F8001F870
:1020B000001F8001F8001F8001F8001F8001F80058
:1020C0001F8001F8001F8001F8001F80FC03FFC083
:1020D0003FFC03FFC03FFC03FFC03FFC03FFC03FCA
:1020E000FC03FFC03FFC03FFC03FFC03FFC03FFCFD
:1020F00003FFC03FFC03FFC03FFC03FFC03FFC03E6
:10210000FFC03FFC03FFC03FFC03FFC03FFC03FFD9
:10211000C03FFC03FFE07F7E07F7F0FE7FFFE7FF95
:10212000FE3FFFC1FFFC1FFF807FF001F800FC00B5
:10213000FFF003FFC00FDF807E7E01F9F807E7E0C4
:102140001F9F807E3E01F8FC07C3F03F0FC0FC3F9D
:1021500003F0FC0FC1F03E07E0F81F87E07E1F810F
:10216000F87E03E1F80F87C03F1F00FCFC03F3F08B
:1021700007CFC01F3E007CF801F3E007EF801FFE91
:10218000003FF000FFC003FF000FFC003FF000FF26
:10219000C001FE0007F800F8001FF8001FF8001F3C
:1021A000F8001FFC001FFC003FFC003F7C001F7C70
:1021B000003E7C003E7C3E3E7C7E3E7C7E3E7C7EC5
:1021C0003E7C7E3E7C7F3E7C7F3E3E7F3E3EFF3EB1
:1021D0003EFF3E3EF73C3EE73C3EE73C3EE7BC3F31
:1021E000E7FC3FE7FC3FE7FC1FE7FC1FE3FC1FC3E6
:1021F000FC1FC3FC1FC3F81FC3F81FC1F81FC1F8A1
:102200001FC1F81F81F80F81F8FC00FDFC01F9F8EF
:1022100007F3F00FC3F03F87E07E07E0FC0FC3F049
:102220001FC7E01F9F803F3F003FFE007FF8007FF9
:10223000F000FFC000FF8001FE0003FC0003F0007F
:1022400007F0001FE0003FC000FFC001FF8003FF58
:10225000800FFF001FBF007E7E00FCFE03F0FC0726
:10226000E1F81FC1F83F03F07E03F1F807E3F00F38
:10227000EFC00FDF801FC0FC007FF801FFF003F705
:10228000F00FE7E01F8FE03F0FC0FE1F81F83F8394
:10229000F03F0FE07E1F807E7F00FCFC01F9F8011B
:1022A000FFF003FFC003FF8007FE000FFC000FF8E4
:1022B000001FE0003FC0003F00007E0000FC000166
:1022C000F80003F00007E0000FC0001F80003F008F
:1022D000007E0000FC0001F80003F00007E0000FA2
:1022E000C0001F80007FFFF3FFFFDFFFFEFFFFF74F
:1022F000FFFFBFFFFDFFFFE000FE000FF0007F00CB
:1023000007F0003F8003F8001FC001FC000FE00051
:10231000FE0007F0007F0003F8003F8001F8001F77
:10232000C000FC000FE0007E0007F0007F0003F813
:10233000003F8001F8001FFFFEFFFFFFFFFFFFFFD0
:10234000FFFFFFFFFFFFFFFFFCFFFFFFFFFFFFFFA0
:102350000FC3F0FC3F0FC3F0FC3F0FC3F0FC3F0F77
:10236000C3F0FC3F0FC3F0FC3F0FC3F0FC3F0FC3B3
:10237000F0FC3F0FC3F0FC3F0FFFFFFFFFF0F80042
:102380000780007C0003C0003E0003E0001E000147
:10239000F0000F0000F8000780007C0007C0003C40
:1023A0000003E0001E0001F0000F0000F8000F80A5
:1023B00000780007C0003C0003E0001E0001F000B0
:1023C0001F0000F0000F8000780007C0003C0003F1
:1023D000E0003E0001F0001F7FDFFFFFFFF7FE0F70
:1023E000C1F83F07E0FC1F83F07E0FC1F83F07E014
:1023F000FC1F83F07E0FC1F83F07E0FC1F83F07ED7
:102400000FC1F83F07E0FC1F83F07E0FDFFFFFFFE7
:10241000FFFC00FC0003F8001FE000FFC003FF000A
:102420001FFE007FFC03F3F01F87E07E1F83F03F59
:102430000F807E7C00FBE001F0FFFFFFFFFFFFFF4E
:10244000FFFFFFFFFFFFFFFF0F1F1F3F3E3E7E7E90
:10245000FEFCFCFCFCFCFCFC03FE00FFF81FFFC1C3
:10246000FFFE1FFFE1FFFF1C03F3003F0001F00030
:102470001F01FFF0FFFF1FFFF3FFFF3FFFF7FFFF0D
:102480007F81F7E01FFE03FFE03FFE03FFE03F7E9A
:1024900007F7F0FF7F9FF7FFFF3FFFF1FF9F0FF967
:1024A000F03E00F8001F0003E0007C000F8001F008
:1024B000003E0007C000F8001F0003E1F07CFF0FA2
:1024C0009FF1F7FF3FFFE7FFFEFF3FDFC1FBF83F54
:1024D000FE03FFC07FF80FFF01FFC03FF807FF00BA
:1024E000FFE01FFE03FFC07FF80FFF01FFF07FFE3C
:1024F0000FDFE7FBFFFF7FFFCFBFF9F3FE3E7F80DB
:1025000003E001FC01FFC0FFF87FFE3FFF8FFFE704
:10251000F839FC077E003F800FC003F000FC003F4D
:10252000000FC003F000FC003F000FC003F000FEEE
:10253000001F8027F019FF1E3FFF8FFFE1FFF83FCC
:10254000FE07FF007F000003F0003F0003F0003FA4
:102550000003F0003F0003F0003F0003F0003F03E2
:10256000E3F0FF3F1FFBF1FFFF3FFFF3FFFF7F9F04
:10257000F7F0FF7E07F7E07F7E03F7E03FFC03FF05
:10258000C03FFC03FFC03FFC03FFC03F7E03F7E0FA
:102590003F7E07F7E07F7F0FF3F9FF3FFFF3FFFF79
:1025A0001FFFF0FFBF0FF3F03E0001FC003FF803F8
:1025B000FFE03FFF83FFFC1FFFF1FC3F8FC0FEFCED
:1025C00003F7E01FBF00FDFFFFEFFFFFFFFFFFFF6F
:1025D000FFFFFFFFFFFFFFE0003F0001F8000FC01B
:1025E000007F0019F801CFF07E3FFFF1FFFF87FF6A
:1025F000FC1FFFE07FFC00FF0000FFC07FF01FFC1E
:102600000FFF03FFC0FE007E001F8007E001F800FF
:102610007F03FFFFFFFFFFFFFFFFFFFFFF7FFF8144
:10262000F8007E001F8007E001F8007E001F800791
:10263000E001F8007E001F8007E001F8007E001F27
:102640008007E001F8007E001F8007E001F8007EAF
:102650000007E001FE7C7FEF9FFFF7FFFEFF7FFF9B
:1026600083FFF07FFC07FF80FFF01FFE03FFC07FAA
:10267000F007FF01FFE03FFC07FF80FFF83FBF8F3F
:10268000F7FFFE7FFFCFFFF8FF9F07E3E000FC00AE
:102690001F8003F300FE7FFFCFFFF1FFFE3FFF87A8
:1026A000FFC03FE000FC003F000FC003F000FC0053
:1026B0003F000FC003F000FC003F000FC7C3F3F85A
:1026C000FDFF3FFFEFFFFBFFFEFF1FFF83FFE0FF6C
:1026D000F03FFC0FFF03FFC0FFF03FFC0FFF03FFC5
:1026E000C0FFF03FFC0FFF03FFC0FFF03FFC0FFFF8
:1026F00003FFC0FFF03FFC0FFF03FFC0FC01F80029
:102700001F8001F8001F8001F8001F8001F8001FE2
:102710008001F00000000000000000000000000048
:102720007FF807FF807FF807FF807FF803FF8001B5
:10273000F8001F8001F8001F8001F8001F8001F8D9
:10274000001F8001F8001F8001F8001F8001F800C1
:102750001F8001F8001F80FFFFEFFFFFFFFFFFFF5B
:10276000FFFFFFFFFFFF00F803F00FC03F00FC0377
:10277000F00FC03E000000000000000000FFF3FF6B
:10278000CFFF3FFCFFF00FC03F00FC03F00FC03F46
:1027900000FC03F00FC03F00FC03F00FC03F00FC43
:1027A00003F00FC03F00FC03F01FC07E01F81FEFD5
:1027B000FFBFFCFFF3FF8FF800FC000FC000FC0020
:1027C0000FC000FC000FC000FC000FC000FC000F99
:1027D000C000FC000FC0FEFC1FEFC1FCFC3F8FC718
:1027E000F0FC7E0FCFE0FDFC0FFF80FFF00FFF003D
:1027F000FFF00FFF80FFF80FFFC0FEFC0FE7E0FCCB
:102800007E0FC7F0FC3F0FC3F8FC1F8FC1FCFC0F0D
:10281000CFC0FEFC07EFC07FFC03F0FFF00FFF000E
:10282000FFF00FFF00FFF0003F0003F0003F000348
:10283000F0003F0003F0003F0003F0003F0003F012
:10284000003F0003F0003F0003F0003F0003F000F2
:102850003F0003F0003F0003F0003F0003F0003FA3
:102860000003F0003F0003F0003F8001F8001FFF6D
:1028700001FFF00FFF00FFF007FF003FF001E3E36F
:10288000EFDFCFFF7F3FFFFEFFFFFBFFFFEFCFCF6D
:10289000BF3F3EF8F87BE1E1FF8F87FE3E1FF8F86F
:1028A0007FE3E1FF8F87FE3E1FF8F87FE3E1FF8FB4
:1028B00087FE3E1FF8F87FE3E1FF8F87FE3E1FF89B
:1028C000F87FE3E1FF8F87FE3E1FF87878007C3FBA
:1028D0003F8FDFF3FFFEFFFFBFFFEFF1FFF87FFE4B
:1028E0000FFF03FFC0FFF03FFC0FFF03FFC0FFF02F
:1028F0003FFC0FFF03FFC0FFF03FFC0FFF03FFC0D3
:10290000FFF03FFC0FFF03FFC0FFF03FFC0FC003D1
:10291000F8007FE00FFF01FFF83FFFC3FFFC7F1FC0
:10292000E7E0FEFE07EFC03FFC03FFC03FFC03FFF4
:10293000803FFC03FFC03FFC03FFC03FFC03FFC020
:102940003FFC07FFE07E7E0FE7F9FE3FFFC3FFFC81
:102950001FFF80FFF007FE001F80007C1FBFE3E722
:10296000FE7FFFCFFFFDFF7FBF83FFF07FFC07FFF0
:1029700080FFF01FFE03FFC07FF80FFF01FFE03F65
:10298000FC07FF80FFF83FFF07FFFFFDFFFFBFFFD2
:10299000E7CFFCFDFF1F9F83F0007E000FC001F812
:1029A000003F0007E000FC001F8003F0000007E08C
:1029B00000FF3F1FFBF3FFFF3FFFF3F9FF7F0FF720
:1029C000E07F7E03F7E03FFC03FFC03FFC03FFC056
:1029D0003FFC03FFC03F7E03F7E03F7E07F7F0FFB9
:1029E0007FFFF3FFFF3FFFF1FFBF0FF3F03E3F001C
:1029F00003F0003F0003F0003F0003F0003F00033E
:102A0000F0003F0003F0003F3F3FEFCFFBF7FEFF3A
:102A1000FFBFFFEFFFFBFE03FF003F800FE003F06F
:102A200000FC003F000FC003F000FC003F000FC09F
:102A300003F000FC003F000FC003F000FC003F006B
:102A40000FC003F000FC000007FC07FFC3FFF1FF0D
:102A5000FC7FFF3FFFCFC033F004FC003F000FF0CE
:102A600003FF007FF81FFF83FFF07FFE07FF807FDB
:102A7000E003FC003F000FC003FC00FFC07FFFFF2E
:102A8000BFFFEFFFFBFFFC7FFE03FC0007E000FC45
:102A9000001F8003F0007E000FC001F8003F80FFA0
:102AA000FFFFFFFFFFFFFFFFFFFFFEFFFF81F800BB
:102AB0003F0007E000FC001F8003F0007E000FC015
:102AC00001F8003F0007E000FC001F8003F0007EDB
:102AD0000007E000FFF01FFF03FFE03FFC03FF8063
:102AE0003FF0FC0FFF03FFC0FFF03FFC0FFF03FFB1
:102AF000C0FFF03FFC0FFF03FFC0FFF03FFC0FFFE4
:102B000003FFC0FFF03FFC0FFF03FFC0FFF03FFCDF
:102B10000FFF87FFF3FDFFFF7FFFDFFFF3FEFC7F6B
:102B20003F0F8000FC03FFE01FBF00FDF807E7C078
:102B30003F3F03F1F81F8FC0FC3E07C1F83E0FC3B3
:102B4000F07E1F81F0FC0F87C07E7E03F3F00F9FA5
:102B5000807CF803E7C01FBE007FF003FF001FF872
:102B600000FFC007FE001FE000FF0007F800F800AC
:102B70001FF8001FF8001FF8001F78001E7C003EA1
:102B80007C003E7C3C3E7C7E3E7C7E3E7C7E3E3CB1
:102B90007E3E3C7E3C3E7F3C3EFF7C3EFF7C3EE7F3
:102BA0007C3EE77C1EE77C1FE7F81FE7F81FE7F88D
:102BB0001FE3F81FC3F81FC3F80FC3F80FC3F00FCC
:102BC000C1F07F03F8FC0FE3F83F07E1FC1FC7E00B
:102BD0003F3F80FCFC01FFE007FF800FFC001FF07F
:102BE000007F8000FE0003F0000FE0007F8003FF05
:102BF000000FFE007FF801FBF00FCFC03F3F81F8D0
:102C00007E07E1FC3F83F1FC0FE7F01FBF807FFCF4
:102C100000FDF807F7E01F9F807E3F03F8FC0FC31D
:102C2000F03F07E0F81F87E07E1F80FC7C03F3F095
:102C30000FCFC01F3F007EF801FFE003FF800FFCB5
:102C4000001FF0007FC001FE0003F8000FE0003F0E
:102C50000000FC0003F0001F80007E0003F801FF6D
:102C6000C007FF001FF8007FC001FC00007FFFDFEE
:102C7000FFF7FFFDFFFF7FFFDFF7F001FC00FE0025
:102C80003F001FC00FE003F001FC00FE007F001FAB
:102C9000C00FE007F001FC00FE007F001F800FFF67
:102CA000FFFFFFFFFFFFFFFFFFFFFFFF007FC03FB2
:102CB000F01FFC07FF01FC00FC003F000FC003F009
:102CC00000FC003F000FC003F000FC003F000FC0FD
:102CD00003F001F801FE03FF00FF803FE00FFE005C
:102CE0003F8007E000FC003F000FC003F000FC0045
:102CF0003F000FC003F000FC003F000FC003F000D6
:102D00007E001FFC07FF00FFC01FF0FFFFFFFFFF5B
:102D1000FFFFFFFFFFFFFFFFFFFFFFFFFFFFFFFFC3
:102D2000FF803FF00FFE03FF800FF000FC003F002C
:102D30000FC003F000FC003F000FC003F000FC00D8
:102D40003F000FC003F0007E001FE003FF007FC0C4
:102D50001FF00FFC07F001F800FC003F000FC0035C
:102D6000F000FC003F000FC003F000FC003F000F2C
:102D7000C003F001FC07FE03FF80FFC03FE000033B
:102D800000000FC0001FE0003FF0003FF00C7FF894
:102D90000E7CF81F787C1FF83E1EF03F3E701FFC33
:102DA000301FFC000FF80007F00003E00000C00037
:102DB0000000000018000000000006261809D500D9
:102DC0001D0012101803D400410018251800D60069
:102DD000B00013301803D100220118241800D700C6
:102DE0008E0117281801D400010209101808D40018
:102DF00013020A2E1808D2004D020B2E1806D2001C
:102E00008D02161D1801DA00DD02161C1801DA0009
:102E10002A0309111807EF003E0315071802E60000
:102E2000510307091809F200590313241803D700A6
:102E3000AF0313281803D4000E0413261804D5007A
:102E4000690413271802D400C60413281803D400F9
:102E5000250515261802D500890513271803D50066
:102E6000E60513281803D400450612261803D500DA
:102E70009B0613281803D400FA0614271802D5005D
:102E80005C07071C1809DD00750708231808DD001A
:102E90009807151B1802DB00DF0715121802DF0068
:102EA0000F08151B1802DB00560810271805D40060
:102EB000A408172C1800D500230917261800D500E0
:102EC000910915261802D500F50912281803D40017
:102ED0004F0A15261802D500B30A12261803D5008A
:102EE000090B13261803D500640B15281802D4000B
:102EF000CD0B13261802D500280C12261803D50076
:102F00007E0C12271802D500D60C16261802D50002
:102F10003F0D12261804D500950D15261801D50071
:102F2000F90D14261802D500580E14281802D400E2
:102F3000BC0E13261803D500170F142D1802D40049
:102F4000880F16261802D500F10F14281802D40095
:102F5000551014261802D500B41014271802D500F5
:102F6000161116261801D5007F1118261800D50055
:102F7000F11117261801D5005F1217261801D50088
:102F8000CD1215261802D50031130A2A1808D300CD
:102F9000661314241802D700C0130B2A1806D30096
:102FA000FA13160E1801DD00211418051800F70099
:102FB000301408101808D4004014141E1801DE0044
:102FC0008B1413281803D400EA14121E1803DE0011
:102FD0002E1514281801D4009215151E1802DE00B3
:102FE000E11512271803D400391613231802DE0046
:102FF0008D1612271803D400E516142A1803D100E1
:103000004E170E2F1803D200A11714271803D4004F
:10301000031814271801D4006518161D1801DE00C6
:10302000B518121D1803DE00F718141E1802DE0072
:10303000421913231803DE00961914231801DE0029
:10304000EE19121D1805DE00301A121E1803DE00DC
:10305000741A13241802D700CA1A121D1803DF00AD
:103060000C1B151C1802DF00561B181C1800DF0073
:10307000AA1B161C1801DF00F71B16221801DF001F
:10308000551C121C1803DF00941C122A1803D400CC
:10309000F31C042A180AD100081D122A1803D400B0
:1030A000671D18101800E00018100008B02D000867
:1030B000207E300000000000000000000102030438
:1030C00006070809E4300008000000201000000096
:1030D0009A0F0008F43000081000002000040000DF
:1030E000AA0F00080100000010000000000000000E
:0430F0000024F400C4
:04000005080000ED02
:00000001FF
